:020000040800F2
:1000000040110020490500083502000837020008A9
:10001000430200084F0200085B02000800000000D5
:10002000000000000000000000000000670200085F
:1000300069020008000000005F0500086B0200086C
:100040006305000863050008630500086F020008E7
:1000500063050008630500086D02000863050008D9
:1000600063050008630500086305000863050008D0
:1000700063050008630500086305000863050008C0
:1000800063050008630500086305000863050008B0
:1000900063050008630500086305000863050008A0
:1000A0006305000863050008630500086305000890
:1000B0006305000863050008630500086305000880
:1000C0006305000863050008630500086305000870
:1000D000630500084533000815330008CB320008DB
:1000E00063050008630500086305000800F002F8D6
:1000F00000F090F80AA090E8000C82448344AAF132
:100100000107DA4501D100F085F8AFF2090EBAE82F
:100110000F0013F0010F18BFFB1A43F0010318473B
:100120002C7500004C750000103A24BF78C878C1C7
:10013000FAD8520724BF30C830C144BF04680C60ED
:10014000704700000023002400250026103A28BF35
:1001500078C1FBD8520728BF30C148BF0B60704739
:100160006E2905F0D580702904F07786662907F09E
:10017000CB81652907F0C881672907F0C58161290E
:10018000AFF3008003681B0A28BF41F08001692992
:1001900004F0E885642904F0E585752904F0E2851A
:1001A0006F2905F0C281782904F04386E92905F01A
:1001B0005D81E42905F05A81F52905F05781EF2981
:1001C00005F0BF81F82904F042860368DB0928BFE7
:1001D00041F08001632905F0DE80732905F0E3809A
:1001E000E32905F05684F32905F05B84002070476D
:1001F0001FB505F063FE04000020002106F062FB3D
:10020000401C60600020002106F046FBE0601FBD3E
:1002100010B510BD05F024FE1146FFF7E9FF03F00D
:10022000EAF805F001FF03B4FFF7F2FF03BC05F0A5
:1002300049FF000070470EA11C4803F022F800BFE0
:10024000FEE71BA1194803F01CF800BFFEE727A139
:10025000164803F016F800BFFEE733A1134803F079
:1002600010F800BFFEE7704770477047704770474F
:100270000D0A2A2A2A2A2A2A2A2A2A2A2A2A2A2A1B
:100280002A2A2A2A2A486172644661756C745F487A
:10029000616E646C65722A2A2A2A2A2A2A2A2A2A44
:1002A0002A2A2A2A2A2A2A2A2A0D0A000038014044
:1002B0000D0A2A2A2A2A2A2A2A2A2A2A2A2A2A2ADB
:1002C0002A2A2A2A2A4D656D4D616E6167655F484D
:1002D000616E646C65722A2A2A2A2A2A2A2A2A2A04
:1002E0002A2A2A2A2A2A2A2A2A0D0A000D0A2A2A12
:1002F0002A2A2A2A2A2A2A2A2A2A2A2A2A2A2A2A5E
:100300002A4275734661756C745F48616E646C65F2
:10031000722A2A2A2A2A2A2A2A2A2A2A2A2A2A2AF5
:100320002A2A2A2A0D0A00000D0A2A2A2A2A2A2AFB
:100330002A2A2A2A2A2A2A2A2A2A2A2A2A55736172
:1003400067654661756C745F48616E646C65722A9E
:100350002A2A2A2A2A2A2A2A2A2A2A2A2A2A2A2AFD
:100360002A2A0D0A000000000CB500200190009020
:100370006C48006840F480306A49086000BF6948F2
:10038000006800F4003000900198401C0190009833
:1003900018B90198B0F5A06FF1D16248006800F477
:1003A000003010B10120009001E000200090009882
:1003B000012843D15C48006840F010005A490860A9
:1003C0000846006820F0030008600846006840F016
:1003D0000200086053484068524948600846406837
:1003E00048600846406840F48060486008464068BD
:1003F00020F47C1048600846406840F4881048604B
:100400000846006840F08070086000BF45480068FA
:1004100000F000700028F9D04248406820F0030046
:10042000404948600846406840F00200486000BF0C
:100430003C48406800F00C000828F9D10CBD10B50C
:10044000FFF792FF10BD10B53648006840F001007C
:1004500034490860084640683449084031494860DA
:1004600008460068324908402E490860084600687E
:1004700020F4802008600846406820F4FE004860B0
:100480004FF41F008860FFF7DAFF4FF00060294942
:10049000086010BD10B5002100200022214B5B68D0
:1004A00003F00C0121B1042906D0082928D107E066
:1004B000214B224C236027E01F4B204C236023E07C
:1004C000184B5B6803F47010164B5B6803F48032C2
:1004D000022303EB904022B9194B4343174C23608E
:1004E0000DE0104B5B6803F4003323B1144B43431E
:1004F000124C236003E0104B4343104C236003E095
:100500000D4B0E4C236000BF00BF064B5B68C3F36E
:1005100003130C4CE15C094B1B68CB40074C236078
:1005200010BD000000100240002002400000FFF853
:10053000FFFFF6FE08ED00E000127A000000002048
:1005400000093D0004000020094880470948004791
:10055000FEE7FEE7FEE7FEE7FEE7FEE7FEE7FEE773
:10056000FEE7FEE704480549054A064B70470000D0
:1005700047040008ED000008400B00204011002057
:10058000400D0020400D002031490143314A1160E7
:10059000704770B5002100230F22C47804B32D4C9E
:1005A000246804F4E064C4F5E064210AC1F10403A2
:1005B000CA40447804FA03F18478144021430901C5
:1005C000254C0678A155047804F01F050124AC40A1
:1005D00005786D11AD0005F1E025C5F8004109E091
:1005E000047804F01F050124AC401C4D06787611F8
:1005F00045F8264070BD1A4A0A400243154B1B1F9E
:100600001A60704739B1134A121D12680243114B28
:100610001B1D1A6006E00F4A121D126882430D4B23
:100620001B1D1A607047042808D14FF0E0210969AA
:1006300041F004014FF0E022116107E04FF0E021AA
:10064000096921F004014FF0E022116170470000B8
:100650000000FA050CED00E000E400E080E100E0BD
:1006600080FFFF1F10B50446CC48844208D1012109
:10067000042000F02DFB0021042000F029FB46E0BF
:10068000C748844208D10121082000F021FB002145
:10069000082000F01DFB3AE0C248844208D1012145
:1006A000102000F015FB0021102000F011FB2EE0BF
:1006B000BD48844208D10121202000F009FB00211F
:1006C000202000F005FB22E0B848844208D1012137
:1006D000402000F0FDFA0021402000F0F9FA16E079
:1006E000B348844208D10121802000F0F1FA0021B2
:1006F000802000F0EDFA0AE0AE48844207D10121E3
:10070000801500F0E5FA0021A01500F0E1FA10BD17
:1007100010B50121084600F0DBFA0021012000F0AD
:10072000D7FA10BD2DE9F041024600250026002031
:1007300000230024002791F803C00CF00F0591F866
:1007400003C00CF0100CBCF1000F03D091F802C0F4
:100750004CEA050591F800C0BCF1000F31D01468D7
:1007600000202BE04FF0010C0CFA00F3B1F800C0B0
:100770000CEA03069E4220D183004FF00F0C0CFAC6
:1007800003F7BC4305FA03FC4CEA040491F803C0E8
:10079000BCF1280F06D14FF0010C0CFA00FCC2F896
:1007A00014C00AE091F803C0BCF1480F05D14FF026
:1007B000010C0CFA00FCC2F810C0401C0828D1D370
:1007C0001460B1F800C0BCF1FF0F34DD54680020A4
:1007D0002EE000F1080C4FF0010808FA0CF3B1F814
:1007E00000C00CEA03069E4221D183004FF00F0C9B
:1007F0000CFA03F7BC4305FA03FC4CEA040491F835
:1008000003C0BCF1280F05D100F1080C08FA0CF860
:10081000C2F8148091F803C0BCF1480F07D100F171
:10082000080C4FF0010808FA0CF8C2F81080401CC0
:100830000828CED35460BDE8F0814FF6FF710180E7
:10084000022181700421C170704702460020936824
:100850000B400BB1012000E0002070470146886882
:1008600080B2704702460020D3680B400BB10120D4
:1008700000E0002070470146C86880B270470161FF
:100880007047416170470AB1016100E04161704702
:10089000C16070474FF480320A4382618161826196
:1008A00082698269704702460020434B18684FF600
:1008B0008073184040EA021008433F4B18607047AD
:1008C0003E49C8617047F0B50A4600230024002164
:1008D000002500F00046B6F1004F02D1364EF16916
:1008E00001E0354E7168C0F3034583B200F4401651
:1008F000B6F5401F08D121F070612F4E766826F0C2
:1009000070662D4F7E6012E000F48016B6F5801FF1
:1009100006D1032606FA05F4A14341F0706106E012
:10092000460D360103FA06F6B14341F0706122B17B
:10093000460D360103FA06F6314300F00046B6F1E3
:10094000004F02D11C4EF16101E01B4E7160F0BD01
:1009500030B500228B071C0F0F2303FA04F2164B4D
:1009600008338C1053F824309343134C08348D1003
:1009700044F8253023468C1053F824308C07240F7C
:1009800000FA04F423430C4C08348D1044F825304D
:1009900030BD0A49DC3108607047000000080140A2
:1009A000000C0140001001400014014000180140FB
:1009B000001C0140002001400000014000002042D6
:1009C000DF48006840F00100DD49086008464068E3
:1009D000DC490840DA49486008460068DA490840BE
:1009E000D74908600846006820F48020086008465F
:1009F000406820F4FE0048604FF41F008860704794
:100A0000CF49096821F48031CD4A11601146096847
:100A100021F480211160B0F5803F03D0B0F5802F24
:100A20000ED106E0C649096841F48031C44A11601C
:100A300007E0C349096841F4A021C14A116000E000
:100A400000BF00BF704710B5014600220023002000
:100A50004A11012A02D1BA4C236806E0022A02D1C7
:100A6000B74C236A01E0B64C636A01F01F0201240F
:100A700094401C400CB1012000E0002010BD38B5AE
:100A8000002000900024002500BF3120FFF7DBFF8D
:100A900005460098401C00900098B0F5A06F01D06A
:100AA000002DF2D03120FFF7CEFF08B1012400E085
:100AB0000024204638BD01460020A14A106820F0DD
:100AC000F80040EAC10010607047A0490860704714
:100AD000024600209A4B586820F47C1042EA010339
:100AE0001843974B5860704798490866704701460D
:100AF0000020934A506820F003000843506070477C
:100B00008F48406800F00C007047014600208C4A76
:100B1000506820F0F0000843506070470146002004
:100B2000874A506820F4E0600843506070470146EF
:100B30000020834A506820F4605040EAC1005060B1
:100B4000704729B17E4A527A02437D4B5A7204E0C3
:100B50007B4A527A82437A4B5A7270477B49D8312A
:100B60000860704701460020754A506820F44040F4
:100B70000843506070470021714A20321170704A5A
:100B800082F82010012802D004280AD104E00121B3
:100B90006B4A2032117005E00521694A203211703C
:100BA00000E000BF00BF70476949086070476449B2
:100BB000096A0143624A1162704765494439086015
:100BC000704730B500210022002400235C4D6D6881
:100BD00005F00C0121B1042905D0082923D105E035
:100BE0005C4D056022E05B4D05601FE0544D6D6873
:100BF00005F47012524D6D6805F48034022505EB42
:100C000092421CB9544D554305600BE04C4D6D6844
:100C100005F400351DB1504D5543056002E04D4DC2
:100C20005543056002E04B4D056000BF00BF444DD9
:100C30006D6805F0F0010909484D6B5C0568DD4001
:100C400045603F4D6D6805F4E061090A434D6B5CFA
:100C50004568DD4085603A4D6D6805F46051C90A0C
:100C60003E4D6B5C4568DD40C560354D6D6805F4F3
:100C70004041890B3A4D6B5CC568B5FBF3F50561E6
:100C800030BD29B12E4A526902432D4B5A6104E00E
:100C90002B4A526982432A4B5A61704729B1284A2C
:100CA00092690243264B9A6104E0254A9269824385
:100CB000234B9A61704729B1214AD2690243204BE4
:100CC000DA6104E01E4AD26982431D4BDA61704743
:100CD00029B11B4AD2680243194BDA6004E0184A72
:100CE000D2688243164BDA60704729B1144A126900
:100CF0000243134B1A6104E0114A12698243104BFC
:100D00001A61704712494039086070470F49C8643A
:100D100070470B49C87170470948406A40F08070BD
:100D200007494862704701460020054A92680A4018
:100D30000AB1012000E00020704701498872704725
:100D4000001002400000FFF8FFFFF6FE00004242E4
:100D50008004424200127A0000093D001400002085
:100D60002400002010B50446FB48844209D101212B
:100D70008803FFF7ADFF00214FF48040FFF7A8FF85
:100D800032E0F648844209D101214804FFF7ADFF63
:100D900000214FF40030FFF7A8FF25E0F04884421F
:100DA00009D101218804FFF7A0FF00214FF4802022
:100DB000FFF79BFF18E0EB48844209D10121C804EA
:100DC000FFF793FF00214FF40020FFF78EFF0BE0A9
:100DD000E548844208D101210805FFF786FF00217C
:100DE0004FF48010FFF781FF10BD2DE9F04786B06A
:100DF00005460E460024A24600BFA1460027B08942
:100E000000B100BF2F462C8A4CF6FF700440F088DA
:100E100004432C82AC894EF6F3100440B08831892B
:100E20000843718908430443AC81AC8A4FF6FF4004
:100E30000440B0890443AC8201A8FFF7C2FEC64853
:100E4000874202D1DDF810A001E0DDF80CA0A889EE
:100E500000F4004040B10AEBCA0000EB0A10316810
:100E60004900B0FBF1F807E00AEBCA0000EB0A10FA
:100E700031688900B0FBF1F86420B8FBF0F00401A0
:100E80002009642101FB1089A88900F4004040B1C9
:100E9000322000EBC900B0FBF1F000F00700044382
:100EA00008E0322000EB09106421B0FBF1F000F003
:100EB0000F0004432C8106B0BDE8F0874FF41651B3
:100EC000016000218180C18001810C2141810021CC
:100ED0008181704710B502460020108A4FF2FF034F
:100EE00018400B884C8823438C882343CC882343A9
:100EF0001843108210BD0021018041808180C18093
:100F0000704721B1828942F40052828104E08289D3
:100F10004DF6FF731A4082817047F0B503460024F6
:100F200000260025002040F66A17B94200D100BF14
:100F30001846C1F3421401F01F06012707FA06F50F
:100F4000012C01D10C3004E0022C01D1103000E062
:100F500014301AB107682F43076002E00768AF43F7
:100F60000760F0BD1AB1838A0B43838202E0838A53
:100F70008B4383827047028A4FF6F0731A400282D5
:100F8000028A0A430282704782894FF2FF731A4035
:100F9000828182890A438281704721B1828942F02D
:100FA0000202828104E082894FF6FD731A40828139
:100FB0007047028A4FF6DF731A400282028A0A43A0
:100FC0000282704721B1028A42F48042028204E028
:100FD000028A4BF6FF731A4002827047C1F308027F
:100FE0008280704701468888C0F308007047818975
:100FF00041F0010181817047028BD2B20283028BE2
:1010000042EA012202837047028B02F47F4202838C
:10101000028B0A430283704721B1828A42F0200288
:10102000828204E0828A4FF6DF731A408282704720
:1010300021B1828A42F01002828204E0828A4FF655
:10104000EF731A408282704721B1828A42F008020F
:10105000828204E0828A4FF6F7731A4082827047D8
:1010600021B1828942F40042828103E08289C2F385
:101070000E028281704721B1828A42F4006282822C
:1010800004E0828A4FF2FF731A4082827047828A9C
:101090004FF6FB731A408282828A0A43828270472B
:1010A00021B1828A42F00202828204E0828A4FF6F3
:1010B000FD731A408282704702460020B1F5007F1E
:1010C00000D100BF13880B400BB1012000E00020CD
:1010D000704701F40072B2F5007F00D100BFCA432F
:1010E0000280704770B502460024002300250020CE
:1010F00040F66A16B14200D100BFC1F3421501F0BB
:101100001F03012606FA03F3012D02D1968933400D
:1011100006E0022D02D1168A334001E0968A334060
:101120000C12012606FA04F41688344013B10CB1EF
:10113000012000E0002070BD10B50022002340F621
:101140006A14A14200D100BF0A1201249440A3B244
:10115000DC43048010BD0000003801400044004022
:1011600000480040004C00400050004010B50446CC
:10117000FE48844208D10121C014FFF7A9FD0021D7
:10118000E014FFF7A5FDC4E0B4F1804F08D10121C0
:101190000846FFF7AAFD00210120FFF7A6FDB8E0F1
:1011A000F348844208D101210220FFF79EFD00216F
:1011B0000220FFF79AFDACE0EE48844208D10121FD
:1011C0000420FFF792FD00210420FFF78EFDA0E030
:1011D000E948844208D101210820FFF786FD00215B
:1011E0000820FFF782FD94E0E448844208D1012101
:1011F0001020FFF77AFD00211020FFF776FD88E030
:10120000DF48844208D101212020FFF76EFD002134
:101210002020FFF76AFD7CE0DA48844208D10121F2
:101220004014FFF755FD00216014FFF751FD70E0F9
:10123000D548844209D10121C804FFF749FD0021A6
:101240004FF40020FFF744FD63E0D048844209D109
:1012500001210805FFF73CFD00214FF48010FFF746
:1012600037FD56E0CA48844209D101214805FFF7FD
:101270002FFD00214FF40010FFF72AFD49E0C5487B
:10128000844208D101214020FFF72FFD002140209A
:10129000FFF72BFD3DE0C048844208D101218020AA
:1012A000FFF723FD00218020FFF71FFD31E0BB4841
:1012B000844208D101218015FFF717FD0021A015F8
:1012C000FFF713FD25E0B648844209D10121080447
:1012D000FFF7FEFC00214FF48030FFF7F9FC18E027
:1012E000B048844209D101214804FFF7F1FC0021F4
:1012F0004FF40030FFF7ECFC0BE0AB48844208D120
:1013000001218804FFF7E4FC00214FF48020FFF75F
:10131000DFFC10BD00220288944B98420ED0994BFE
:1013200098420BD0B0F1804F08D0914B984205D035
:10133000904B984202D0904B984204D14FF68F7355
:101340001A404B881A438D4B984207D08C4B9842D9
:1013500004D04FF6FF431A40CB881A4302808B8893
:1013600083850B880385814B98420BD0854B98422F
:1013700008D08B4B984205D08A4B984202D08A4BBA
:10138000984201D10B7A038601238382704770B59E
:10139000002400220023058C4FF6FE76354005849C
:1013A000028C8388048B4FF68F752C40B51E2C4021
:1013B0000D882C43751E2A400D892A434D882A43E7
:1013C0006A4DA8420BD06F4DA84208D0744DA84278
:1013D00005D0744DA84202D0734DA84213D14FF6E8
:1013E000F7752A404D892A434FF6FB752A408D88B0
:1013F0002A434FF6FF652B404FF6FF552B408D8952
:101400002B43CD892B4383800483CD88858602843A
:1014100070BD70B5002400220023058C4FF6EF76D6
:1014200035400584028C8388048B48F6FF752C4078
:101430004FF6FF452C400D884FF6FF7606EA05254E
:101440002C434FF6DF752A400D8906EA05152A431D
:101450004D8806EA05152A43444DA84202D0494D5D
:10146000A8421DD14FF67F752A404D894FF6FF7671
:1014700006EA05152A434FF6BF752A408D8806EA0D
:1014800005152A434FF6FF352B404FF2FF752B40D1
:101490008D8906EA85052B43CD8906EA85052B4310
:1014A00083800483CD880587028470BD70B50024D5
:1014B00000220023058C4FF6FF6635400584028C20
:1014C0008388848B4FF68F752C404FF6FC752C402B
:1014D0000D882C434FF6FF552A400D894FF6FF76B5
:1014E00006EA05252A434D8806EA05252A431F4DAD
:1014F000A84202D0234DA8421DD14FF2FF752A40C9
:101500004D894FF6FF7606EA05252A434FF6FF354B
:101510002A408D8806EA05252A434EF6FF752B40A2
:101520004DF6FF752B408D8906EA05152B43CD89B5
:1015300006EA05152B4383808483CD888587028442
:1015400070BD70B5002200230024058C4EF6FF7696
:1015500035400584038C8488828B48F6FF752A40C9
:101560004FF6FF452A400D8820E00000002C014086
:101570000004004000080040000C00400010004043
:101580000014004000340140004C01400050014074
:101590000054014000180040001C004000200040A2
:1015A0000040014000440140004801404FF6FF76F2
:1015B00006EA05252A434DF6FF752B400D8906EAFC
:1015C00005352B434D8806EA05352B43FA4DA842D5
:1015D00002D0FA4DA84208D14BF6FF752C408D89F8
:1015E0004FF6FF7606EA85152C4384808283CD88EA
:1015F000A0F84050038470BD828B4FF2FF331A4035
:101600008283828B4FF6FF7303EA01231A4382839E
:101610007047F0B50C461546002200210026078CC5
:101620004EF6FF7C07EA0C070784828B018C4FF68D
:10163000FF7707EA043640F6FF473A404FF6FF7758
:1016400007EA05273A434FF6FF7707EA03373A439D
:10165000D94FB8420ED0D94FB8420BD0B0F1804F1D
:1016600008D0D74FB84205D0D64FB84202D0D64F97
:10167000B84206D14DF6FF77394046F480573943DA
:1016800005E047F6FF57394044F4805739438283D9
:101690000184F0BD828B4FF6F3731A408283828BF4
:1016A0000A4382837047F0B50C461546002200219C
:1016B0000026078C4FF6FF6C07EA0C070784828B25
:1016C000018C4FF6FF7707EA04264FF60C773A4075
:1016D0004FF6FF7707EA03172F433A43B64FB84256
:1016E0000ED0B64FB8420BD0B0F1804F08D0B44FF7
:1016F000B84205D0B34FB84202D0B34FB84206D17A
:101700004FF6FF57394046F48077394305E04FF2F2
:10171000FF57394044F48077394382830184F0BD18
:10172000028B4FF2FF331A400283028B4FF6FF7396
:1017300003EA01231A4302837047F0B50C461546AD
:10174000002200210026078C4FF6EF7C07EA0C07E9
:101750000784028B018C4FF6FF7707EA041640F6E8
:10176000FF473A404FF6FF7707EA03373A434FF611
:10177000FF7707EA05273A438F4FB8420ED08F4FC5
:10178000B8420BD0B0F1804F08D08D4FB84205D091
:101790008C4FB84202D08C4FB84206D14FF6DF775B
:1017A000394046F01007394305E04FF65F7739407E
:1017B00044F01007394302830184F0BD028B4FF6D9
:1017C000F3731A400283028B0A4302837047F0B519
:1017D0000C46154600220021068C4FF6FE773E404F
:1017E0000684028B018C4FF60C7632407E1C06EA92
:1017F00003162E433243704EB0420ED06F4EB042AD
:101800000BD0B0F1804F08D06D4EB04205D06D4E78
:10181000B04202D06C4EB04206D14FF6FD76314058
:1018200044F00106314305E04FF6F576314044F0CF
:101830000106314302830184F0BD70B505460C46B4
:101840005D4885420ED05D4885420BD0B5F1804F92
:1018500008D05B48854205D05A48854202D05A4894
:10186000854200D100E000BF208850B92389A288BA
:1018700061882846FFF7ABFFE1882846FFF79EFF07
:1018800025E0208804280AD12389A2886188284677
:10189000FFF753FFE1882846FFF742FF17E0208853
:1018A00008280AD12389A28861882846FFF7FBFE11
:1018B000E1882846FFF7EEFE09E02389A2886188C7
:1018C0002846FFF7A6FEE1882846FFF795FE70BD83
:1018D0002DE9F04105460C4600260127608808B92D
:1018E000022600E00026A088012801D1022700E09E
:1018F00001272088A0B92389A28861882846FFF79C
:1019000066FFE1882846FFF759FF23893A463146AA
:101910002846FFF712FFE1882846FFF701FF13E092
:101920002389A28861882846FFF707FFE1882846B7
:10193000FFF7F6FE23893A4631462846FFF747FF70
:10194000E1882846FFF73AFFBDE8F0810A884B8816
:101950001A438B881A43CB881A430B891A434B8945
:101960001A438B891A43A0F8442070474FF6FF7141
:10197000818000210180C180418001727047002177
:10198000018041808180C180018141818181C1814B
:101990007047002101804180012181800021C180A8
:1019A000018170470021018041808180C1800181D7
:1019B0004181818170470000002C014000340140CA
:1019C0000004004000080040000C004021B10288E3
:1019D00042F00102028004E002884FF6FE731A40D2
:1019E0000280704731B1B0F8442042F40042A0F8C0
:1019F000442005E0B0F84420C2F30E02A0F84420D1
:101A000070471AB183890B43838102E083898B433A
:101A1000838170478182704741EA0203A0F8483011
:101A200070471AB183890B43838102E083898B431A
:101A30008381704701894FF6F87211400181704728
:101A40000A46002101894FF68F7319401143018125
:101A5000704730B504460D4629462046FFF7F0FF93
:101A6000208940F00700208130BD2DE9F041044677
:101A70000D4616461F46602D06D13B4601223146D3
:101A80002046FFF75AFE05E03B460122314620463C
:101A9000FFF79DFE29462046FFF7D2FF208940F040
:101AA00007002081BDE8F08130B50C460021018996
:101AB000C9B24FF6FF7505EA0325154325432943AF
:101AC000018130BD2DE9F04105460E461746984686
:101AD000002443463A4631462846FFF7E5FF2C8965
:101AE0004FF6F870044044F007044FF68F7004403E
:101AF00044F070042C81BDE8F081F0B504460D4639
:101B000016461F463B46324629462046FFF7CCFF85
:101B1000208940F480402081F0BD01858282704799
:101B20000A46002101884FF68F7319401143018046
:101B30007047F0B50C4615461E46002100220023D2
:101B40000189028B038C4FF6F877394021434FF619
:101B5000FC473A4040F201173A434FF6DD773B40ED
:101B60004FF6FF7707EA06172F433B4301810283B5
:101B70000384F0BD0A460021018B4FF68F73194094
:101B80001143018370470A460021018B48F6FF7319
:101B900019404FF6FF7303EA02231943018370478C
:101BA0000A460021818B4FF68F73194011438183C0
:101BB00070470A460021818B48F6FF7319404FF6A3
:101BC000FF7303EA022319438183704721B102881E
:101BD00042F08002028004E002884FF67F731A40D0
:101BE0000280704721B1828842F00402828004E0C2
:101BF00082884FF6FB731A408280704721B1828839
:101C000042F00802828004E082884FF6F7731A409F
:101C10008280704721B1828842F00102828004E014
:101C200082884FF6FE731A40828070470A46002170
:101C3000018B4FF6F77319401143018370470A4631
:101C40000021018B4FF2FF7319404FF6FF7303EA37
:101C500002231943018370470A460021818B4FF606
:101C6000F77319401143818370470A460021818B25
:101C70004FF2FF7319404FF6FF7303EA0223194333
:101C8000818370470A460021018B4FF6FB73194090
:101C90001143018370470A460021018B4FF6FF3341
:101CA00019404FF6FF7303EA02231943018370477B
:101CB0000A460021818B4FF6FB7319401143818343
:101CC00070470A460021818B4FF6FF3319404FF6CB
:101CD000FF7303EA02231943818370470A460021F8
:101CE000018B4FF67F7319401143018370470A46F9
:101CF0000021018BC1F30E014FF6FF7303EA0223AB
:101D00001943018370470A460021818B4FF67F7388
:101D100019401143818370470A460021818BC1F32A
:101D20000E014FF6FF7303EA0223194381837047C4
:101D30000A460021018C4FF6FD73194011430184BE
:101D400070470A460021018C4FF6F7731940114382
:101D5000018470470A460021018C4FF6DF73194059
:101D60004FF6FF7303EA02131943018470470A46D2
:101D70000021018C4FF67F7319404FF6FF7303EA81
:101D800002131943018470470A460021018C4FF663
:101D9000FF5319404FF6FF7303EA022319430184EE
:101DA00070470A460021018C4FF2FF7319404FF62D
:101DB000FF7303EA02231943018470470A46002196
:101DC000018C4DF6FF7319404FF6FF7303EA02339F
:101DD00019430184704730B5002301248C40A3B21D
:101DE000048C9C430484048C02FA01F5ADB22C43AC
:101DF000048430BD30B5002304248C40A3B2048C8D
:101E00009C430484048C02FA01F5ADB22C43048493
:101E100030BD70B503460020002418461830012557
:101E20008D40ACB21D8CA5431D8409B1082909D190
:101E300000EB6100056825F0700505600568154335
:101E400005600EE00D1FC5F34E052844056825F416
:101E5000E045056005684FF6FF7606EA0226354341
:101E6000056070BD21B1028842F00202028004E0E8
:101E700002884FF6FD731A400280704721B1028834
:101E800042F00402028004E002884FF6FB731A401D
:101E90000280704721B1828842F08002828004E093
:101EA00082884FF67F731A408280704702884FF60F
:101EB000F7731A40028002880A43028070478288C2
:101EC0004FF68F731A40828082880A43828070475F
:101ED00002894FF6F8731A40028102890A4302818F
:101EE000704702894FF67F731A40028102890A43C4
:101EF0000281704781847047818570478186704771
:101F00000187704781877047A0F8401070470288AA
:101F10004FF6FF431A40028002880A43028070474E
:101F20000146888E70470146088F70470146888FAA
:101F300070470146B1F8400070470146888C7047F1
:101F40000146088D704702460020138A0B400BB1F2
:101F5000012000E000207047CA430282704730B57C
:101F60000246002000230024158A05EA0103958912
:101F700005EA010413B10CB1012000E0002030BDDE
:101F8000CA4302827047000010B50446FA488442F2
:101F900008D101214015FEF79BFE00216015FEF7D8
:101FA00097FE17E0F548844208D101210015FEF79D
:101FB0008FFE00212015FEF78BFE0BE0F0488442D7
:101FC00008D10121C803FEF783FE00214FF4004031
:101FD000FEF77EFE10BD30B502460020002350689B
:101FE000E84C20400D790C6844EA052420435060F9
:101FF0009068E54C2040D1E902542C434D7944EAE5
:10200000450420439060D06A20F470000C7C641E6C
:10201000E4B2234340EA0350D06230BD00210160A6
:10202000017141718160C16001210174704721B16A
:10203000826842F00102826003E0826822F00102BD
:102040008260704721B1826842F48072826003E04E
:10205000826822F480728260704710B50023CBB290
:102060001AB144681C43446002E044689C434460E5
:1020700010BD816841F00801816070470146002071
:102080008A6802F008020AB1012000E000207047CF
:10209000816841F0040181607047014600208A6830
:1020A00002F004020AB1012000E00020704721B1D3
:1020B000826842F4A002826003E0826822F4A002F7
:1020C00082607047014600208A6802F480020AB1EB
:1020D000012000E00020704710B50A4600210023CF
:1020E000416821F46041531E41EA4331416010BD13
:1020F00021B1426842F40062426003E0426822F487
:10210000006242607047F0B504460D460020002191
:10211000092D11DDE068A5F10A0606EB4607072642
:1021200006FA07F18843A5F10A0606EB460603FA0C
:1021300006F10843E0600CE0206905EB450707263F
:1021400006FA07F1884305EB450603FA06F1084352
:102150002061072A0FDA606B561E06EB86071F26E2
:1021600006FA07F18843561E06EB860605FA06F1C5
:102170000843606322E00D2A0FDA206BD61F06EBBE
:1021800086071F2606FA07F18843D61F06EB860648
:1021900005FA06F10843206310E0E06AA2F10D069B
:1021A00006EB86071F2606FA07F18843A2F10D0603
:1021B00006EB860605FA06F10843E062F0BD21B1A0
:1021C000826842F48012826003E0826822F4801206
:1021D000826070470146C86C80B2704766484C30D8
:1021E0000068704721B1426842F48062426003E0B7
:1021F000426822F480624260704721B1426842F432
:102200008052426003E0426822F48052426070478C
:102210000A460021816821F4E04111438160704742
:1022200021B1826842F40042826003E0826822F4B5
:1022300000428260704721B1826842F402128260DB
:1022400003E0826822F40212826070470146002097
:102250008A6802F400120AB1012000E000207047F1
:10226000F0B504461546002000220026092911DD9C
:10227000E068A1F10A0707EB470C072707FA0CF201
:102280009043A1F10A0707EB470703FA07F210434F
:10229000E0600CE0206901EB410C072707FA0CF223
:1022A000904301EB410703FA07F210432061A06B52
:1022B000C0F30156EF1C06F1010CA7EB0C0707EB6E
:1022C000870C1F2707FA0CF29043EF1C06F1010C54
:1022D000A7EB0C0707EB870701FA07F21043A0638F
:1022E000F0BD10B50A4600210023816B21F4401196
:1022F000531E41EA0351816310BD08B500230093CA
:102300000090009B0B440093009B1A6008BD08B529
:10231000024600200090009201F12800009B184422
:1023200000900098006880B208BD0A46002141680C
:10233000164B1940114341607047416282627047F9
:102340000A460021416821F01F0111434160704796
:1023500040B109490831096841F40001064A0832D0
:10236000116007E004490831096821F40001024ABC
:10237000083211607047000000240140002801402D
:10238000003C0140FFFEF0FFFDF7F1FFFFFD3FFFC6
:102390000246002013680B400BB1012000E0002032
:1023A0007047CA430260704770B5024600200023A0
:1023B00000240B125568CEB205EA060415681D40CC
:1023C00015B10CB1012000E0002070BD00220A12FE
:1023D000D3430360704700004FF0E020006920F015
:1023E00004004FF0E02108610720364908700846D4
:1023F000007800EB4001C1EBC0104FF6FF7101EA1D
:10240000C000314908807047002120F07F402D4AEC
:10241000127842434FF0E0235A6100229A61012270
:102420001A6100BF4FF0E022116901F001021AB1F8
:1024300001F48032002AF5D000224FF0E0231A6127
:102440009A617047002100B9704720F07F401E4A12
:10245000128842434FF0E0235A6100229A61012220
:102460001A6100BF4FF0E022116901F001021AB1B8
:1024700001F48032002AF5D000224FF0E0231A61E7
:102480009A6100BFE0E770B50446002600254FF4CE
:10249000FA7094FBF0F0C6B24FF4FA7094FBF0F1CE
:1024A00000FB114085B205E04FF4FA70FFF7CAFF58
:1024B000701EC6B2002EF7D115B12846FFF7C2FF35
:1024C00070BD0000280000202A00002010B504463E
:1024D000012C01D0012000E0002002464FF4805181
:1024E0004248FEF7D0F90CB1012000E0002040493D
:1024F000087010BD08B501210C20FEF7CFFB10209D
:102500008DF803000002ADF8000003208DF80200F2
:1025100069463648FEF706F90020FFF7D7FF08BDE9
:1025200010B50446012C01D0012000E00020024635
:1025300040212E48FEF7A7F90CB1012000E0002051
:102540002B49487010BD10B50446012C01D0012064
:1025500000E00020024680212448FEF794F90CB1E7
:10256000012000E000202249887010BD10B504460B
:10257000012C01D0012000E0002002464FF48071C0
:102580001A48FEF780F90CB1012000E0002018493C
:10259000C87010BD10B50446012C01D0012000E028
:1025A000002002464FF400711048FEF76CF90CB1A0
:1025B000012000E000200E49087110BD10B5012077
:1025C000FFF784FF3220FFF73DFF0020FFF77EFF7B
:1025D0003220FFF737FF0120FFF778FF3220FFF7A7
:1025E00031FF0020FFF772FF10BD0000000C01401A
:1025F0002C0000207FB505460C4601210846FEF759
:102600005AFB01210C20FEF749FB0220ADF80C001B
:1026100028208DF80F0003A97C48FEF783F80221DB
:102620007A48FEF72EF90120ADF80C0010208DF845
:102630000F0003208DF80E0003A97448FEF772F80E
:10264000ADF80450ADF800400020ADF80600ADF83C
:10265000020069464FF08040FEF75CFE7FBD2DE929
:10266000F0410024002500260020694908600A2066
:10267000FFF7CAFE01206749C1F880010F20FFF76C
:10268000C3FE00206249086000BF61487C380068D2
:102690000028FAD001218807FFF798F907E01420F5
:1026A000FFF7B2FE641CB4F57A7F00DB04E0584803
:1026B0007C3800680128F2D000BF00214FF0804034
:1026C000FFF784F94FF08040FFF737FC05462846B6
:1026D00004F03AFE0746504904F038FD0646002053
:1026E0004FF0804188843046BDE8F0812DE9F0410B
:1026F0000024002500260020484908600A20FFF732
:1027000083FE01204649C1F898010F20FFF77CFEA7
:1027100000204249086000BF40487C38006800281B
:10272000FAD001218807FFF751F907E01420FFF7DD
:102730006BFE641CB4F57A7F00DB04E037487C381C
:1027400000680128F2D000BF00214FF08040FFF761
:102750003DF94FF08040FFF7F0FB0546284604F0B6
:10276000F3FD07462C4904F0F1FC064600204FF02B
:10277000804188843046BDE8F0812DE9F041002495
:102780000025002600202549083908600A20FFF7A7
:102790003BFE01202249C1F890010F20FFF734FED3
:1027A00000201E490839086000BF1C4884380068B2
:1027B0000028FAD001218807FFF708F907E0142064
:1027C000FFF722FE641CB4F57A7F00DB04E01348B7
:1027D000843800680128F2D000BF00214FF080400B
:1027E000FFF7F4F84FF08040FFF7A7FB05462846B7
:1027F00004F0AAFD0746084904F0A8FC064600209C
:102800004FF0804188843046BDE8F081000C0140E3
:1028100080812142008021420000684298012142CB
:102820000000214210B501210C20FEF737FA10BD3F
:1028300010B56448006820F470406249086008469A
:10284000006840F44050086000205F490860142090
:10285000FFF719FE01205D49C1F8AC011E20FFF70A
:10286000D3FD10BD10B500245648006820F4704018
:10287000544908600846006840F40040086004E0DD
:10288000601CC4B20120FFF7BFFD4F4880380068CC
:1028900008B1642CF4DB642C01DB012010BD0024A2
:1028A00004E0601CC4B20120FFF7AEFD464880384A
:1028B000006808B9642CF4DB642C01DB0120EDE72F
:1028C0000020EBE710B5002404E0601CC4B2012036
:1028D000FFF79AFD3C488038006808B1642CF4DBAF
:1028E000002404E0601CC4B20120FFF78DFD3648CF
:1028F0008038006808B9642CF4DB2820FFF784FDD9
:1029000031488038006808B1012010BD0020FCE784
:1029100070B50024002506E06006040EFFF7D2FF24
:102920000443681CC5B2082DF6DB204670BD7CB59B
:1029300005460E46FFF77CFFFFF794FFF8B9002429
:1029400005E0FFF7E5FF0DF80400601CC4B2052C9C
:10295000F7DB9DF800009DF8011008449DF8021077
:1029600008449DF8031008449DF80410884208D1DB
:102970009DF8000030609DF80200286001E0012011
:102980007CBD0020FCE708B501210420FEF786F994
:102990004FF40060ADF8000010208DF80300032014
:1029A0008DF8020069460748001FFDF7BBFE4FF493
:1029B00000610448001FFDF762FFFFF739FFFFF7D2
:1029C00051FF08BD04080140AC0121420000214232
:1029D00000B587B001214FF40170FEF75FF94FF4A5
:1029E0000040FEF7BFF80120FFF7B2FC0120ADF870
:1029F000040000208DF8070001A92F48FDF792FE82
:102A00002E48FFF7C1FA002002908DF80C008DF8D7
:102A10000D004FF4602004900020059001208DF8F7
:102A2000180002A92548FFF7D6FA01212348FFF72D
:102A3000FEFA2248FFF71DFB00BF2048FFF71EFBF0
:102A40000028FAD11D48FFF723FB00BF1B48FFF702
:102A500024FB0028FAD107B000BD10B504460723B7
:102A6000012221461548FFF74EFB01211348FFF7CD
:102A70001EFB00BF02211148FFF78AFC0028F9D095
:102A80000E48FFF7A7FB10BD2DE9F04107460C46A5
:102A90000025002608E03846FFF7DFFF0544022046
:102AA000FFF7F1FC701CC6B2A642F4DBB5FBF4F0F4
:102AB00080B2BDE8F0810000000801400024014020
:102AC00008B54020ADF8000003208DF80200142066
:102AD0008DF803006946FE48FDF724FE8020ADF81E
:102AE000000003208DF8020014208DF803006946D1
:102AF000F748FDF717FE08BD1E2001E0411EC8B2D1
:102B00000028FBD1704700B58020F14910310860E2
:102B100040200860FFF7F0FFED480830006808B972
:102B2000012000E0002000F0800008B1002000BD7E
:102B30008020E74914310860FFF7DEFFE4480830E1
:102B4000006800F0800008B10020F0E78020E04934
:102B500014310860FFF7D0FF0120E8E700B54020FE
:102B6000DB4914310860FFF7C7FF8020D8491431D2
:102B70000860FFF7C1FF4020D54910310860FFF71A
:102B8000BBFF8020D24910310860FFF7B5FF00BDC0
:102B900000B54020CE4914310860FFF7ADFF80201A
:102BA000CB4914310860FFF7A7FF4020C849103116
:102BB0000860FFF7A1FF4020C54914310860FFF706
:102BC0009BFF00BD00B54020C14914310860FFF7EC
:102BD00093FF8020BE4910310860FFF78DFF402031
:102BE000BB4910310860FFF787FF4020B849143116
:102BF0000860FFF781FF00BD00B54020B4491431E3
:102C00000860FFF779FF8020B14910310860FFF7B5
:102C100073FF4020AE4910310860FFF76DFFAC48EC
:102C20000830006800F0800038B14020A849143115
:102C30000860FFF761FF002000BD4020A449143167
:102C40000860FFF759FF0120F6E700B502460823A8
:102C50001BE040209E4914310860FFF74DFF02F051
:102C6000800020B180209A491031086003E0802064
:102C70009749143108605006020EFFF73DFF4020CF
:102C8000934910310860FFF737FF181EA3F10101C7
:102C9000CBB2DED140208E491431086000BD00B5B2
:102CA0000823002280208A491031086015E0500670
:102CB000020E4020864914310860FFF71DFF4020B6
:102CC000834910310860FFF717FF8148083000681A
:102CD00000F0800008B142F00102181EA3F10101CA
:102CE000CBB2E4D140207A4914310860104600BDCF
:102CF00041F2883000E0401E0028FCD1704770B5DA
:102D000006460C461546FFF7FEFE08B9002070BDCA
:102D10003046FFF79AFFFFF76FFF18B9FFF71EFF66
:102D20000020F4E72046FFF790FFFFF765FF2846F5
:102D3000FFF78BFFFFF760FFFFF710FFFFF7D8FFEC
:102D40000120E4E770B504460D46FFF7DCFE08B944
:102D5000002070BD2046FFF778FFFFF74DFF30B928
:102D6000FFF7FCFE01205B4908700020F1E72846D0
:102D7000FFF76BFFFFF740FFFFF7C5FE611CC8B20E
:102D8000FFF763FFFFF738FFFFF789FF0646FFF7FE
:102D900019FFFFF7E3FE3046DBE710B5FFF790FEC3
:102DA0000A20FFF770FB00226B21D020FFF7A7FF5E
:102DB00007221921D020FFF7A2FF06221A21D020D6
:102DC000FFF79DFF18221B21D020FFF798FF01225B
:102DD0001C21D020FFF793FF10BD2DE9F04387B0F1
:102DE0004421D020FFF7AEFF8DF810004321D02002
:102DF000FFF7A8FF8DF811009DF810009DF8111045
:102E000040EA012000B2344908800846B0F90000C9
:102E100003F09DFF80460022304B03F0AFFF0646D3
:102E20002F4A304B03F00CFE044603F061FF00B262
:102E3000294908804621D020FFF784FF8DF8120031
:102E40004521D020FFF77EFF8DF813009DF812007A
:102E50009DF8131040EA012000B22349088008467B
:102E6000B0F9000003F073FF804600221B4B03F013
:102E700085FF06461A4A1B4B03F0E2FD044603F0A9
:102E800037FF00B2184908804821D020FFF75AFFC9
:102E90008DF814004721D020FFF754FF8DF815005E
:102EA0009DF814009DF8151040EA012000B20F496A
:102EB00008800846B0F9000003F049FF06460022EA
:102EC000064B03F05BFF0446054A064B10E000008A
:102ED000000C01403A0000203200002000406F400A
:102EE0007B14AE47E17A74403400002036000020A5
:102EF00003F0A6FD804603F0FBFE00B250490880B7
:102F00004221D020FFF71EFF8DF816004121D0206E
:102F1000FFF718FF8DF817009DF816009DF81710A1
:102F200040EA012000B2474908800846B0F9000095
:102F300043F29031084403F00AFF06460022424B58
:102F400003F07EFD04460022404B04F015F8804655
:102F500003F0CEFE00B23B4908803C21D020FFF7B1
:102F6000F1FE8DF804003B21D020FFF7EBFE8DF839
:102F700005009DF804009DF8051040EA012000B20C
:102F8000334908800846B0F9000003F0E0FE064629
:102F9000304A314B03F054FD044603F0A9FE00B261
:102FA0002B4908803E21D020FFF7CCFE8DF806008B
:102FB0003D21D020FFF7C6FE8DF807009DF80600E2
:102FC0009DF8071040EA012000B224490880084615
:102FD000B0F9000003F0BBFE06461E4A1E4B03F08C
:102FE0002FFD044603F084FE00B21C4908804021F6
:102FF000D020FFF7A7FE8DF808003F21D020FFF773
:10300000A1FE8DF809009DF808009DF8091040EA1E
:10301000012000B2124908800846B0F9000003F010
:1030200096FE06460B4A0C4B03F00AFD044603F0DD
:103030005FFE00B20A49088007B0BDE8F0830000D7
:10304000360000203800002000807140008043409E
:103050004E0000207B14AE47E17A6440500000200F
:103060005200002010B586B0044601210420FDF76F
:1030700015FE01218803FDF711FE18208DF81700B9
:103080004FF40070ADF8140003208DF8160005A968
:10309000BB48FDF747FB04208DF817000002ADF890
:1030A000140003208DF8160005A9B548FDF73AFB7A
:1030B00001940020ADF810000C20ADF80E000020A7
:1030C000ADF80C00ADF80A00ADF8080001A9AD4854
:1030D000FDF78BFE0121AB48FDF713FF012240F203
:1030E0002551A848FDF719FF25208DF80000012083
:1030F0008DF8030000208DF8010002208DF80200F9
:103100006846FDF746FA06B010BD10B586B0044615
:1031100001210420FDF7C2FD01214804FDF7CBFD8C
:1031200018208DF817000420ADF8140003208DF846
:10313000160005A99248FDF7F5FA04208DF817004E
:103140000820ADF8140003208DF8160005A98C485E
:10315000FDF7E8FA01940020ADF810000C20ADF85E
:103160000E000020ADF80C00ADF80A00ADF8080024
:1031700001A98548FDF739FE01218348FDF7C1FE0D
:10318000012240F225518048FDF7C7FE26208DF828
:10319000000001208DF8030000208DF801008DF85B
:1031A00002006846FDF7F5F906B010BD10B586B00F
:1031B000044601210820FDF771FD01218804FDF777
:1031C0007AFD18208DF817004FF48060ADF81400D8
:1031D00003208DF8160005A96C48FDF7A3FA04201A
:1031E0008DF817004002ADF8140003208DF816008A
:1031F00005A96648FDF796FA01940020ADF8100085
:103200000C20ADF80E000020ADF80C00ADF80A005F
:10321000ADF8080001A95E48FDF7E7FD01215C4813
:10322000FDF76FFE012240F225515948FDF775FE6A
:1032300027208DF8000001208DF8030000208DF874
:1032400001008DF802006846FDF7A3F906B010BD35
:103250002DE9F04107460C46154600260DE014F80E
:10326000011B3846FDF7BAFE00BF40213846FDF786
:1032700023FF0028F9D0701C86B2AE42EFDBBDE818
:10328000F0810FB430B5CBB0054601AC50A800902A
:103290004FF4947101A8009B4F9A01F0E3FC0020C9
:1032A00000900BE014F8011B2846FDF797FE00BFC5
:1032B00040212846FDF700FF0028F9D0207800289B
:1032C000F0D14BB030BC5DF814FB10B540F2255185
:1032D0002F48FDF707FFE0B12E480078B0F5007FDA
:1032E00007D300202B4908704FF400712A4801F0E1
:1032F00058FF2748FDF776FEC1B2264802780078CD
:10330000401C244B18702448815420212048FDF78C
:10331000E0FE10BD10B540F225511B48FDF7E2FE5E
:1033200078B11948001D008858B11748001D008861
:103330001A491B4A1268885419480068401C1849E9
:10334000086010BD10B540F225510E48FDF7CAFEC9
:1033500018B120210B48FDF7BCFE10BD70B5064624
:103360000C46002508E014F8011B3046FDF736FE38
:103370000A20FFF788F86D1C072DF4DD70BD0000F2
:10338000000801400038014000440040000C0140AA
:103390000048004054000020E002002060000020AF
:1033A0003C00002010B5FDF74EF84FF4A060FDF78B
:1033B000EBF8FFF711F84FF4E130FFF753FE4FF44D
:1033C000E130FFF7A2FEFFF795F8FFF72BFA472150
:1033D0004FF6FF70FFF70EF9FFF7D5FAFFF7F8FA8F
:1033E000FFF7DBFC00F09EFF45A14A48FFF749FFCD
:1033F000FFF7E4F810BD08B500250024FFF7D2FF61
:103400007DE0681C80B20546642863DBFFF7E5FCBD
:103410004148B0F90000322807DC01203F4908701C
:103420003FA13C48FFF72DFF02E000203B49087018
:10343000FFF715F9064603F04BFF3F4908603F4987
:103440003F48FFF774FA14210020FFF71DFB814667
:1034500003F07AFF80464FF08B4103F077FE07467A
:10346000384903F085FF064603F04EFF36490870E1
:103470002948B0F9000000903448B0F900303448D1
:10348000B0F9002033A12348FFF7FBFE2A483BA1F7
:1034900002682048FFF7F5FE29483CA102681D4854
:1034A000FFF7EFFE25483EA102681A48FFF7E9FE44
:1034B000254802783EA11748FFF7E3FE40A11548D2
:1034C000FFF7DFFE00F0C9FB01F0EDFA0120FEF787
:1034D000FDFF0025002001F04CFB044614B12046FE
:1034E00000F0CFFB3BA13D4801F01EFE08B100F00B
:1034F00019FF2820FEF7A6FF0020FEF7E7FF80E770
:1035000020486172647761726520696E6974204F2A
:103510004B0D0A0000380140520000204D000020F1
:10352000E4BA95E79B96E5B7B2E7BB8FE8A2ABE6B6
:103530008993E5BC800D0A0040000020480000206F
:10354000440000200000C8424C0000205000002031
:103550004E000020E58AA0E9809FE5BAA6EFBC9A5C
:10356000415F583A25642020415F593A2564202064
:10357000415F5A3A2564200D0A000000E6B0B4E429
:10358000BD8D3A20256420636D0D0A00E6B8A9E5DB
:10359000BAA63A202564206043200D0A00000000EE
:1035A000E6B9BFE5BAA63A2025642025250D0A0014
:1035B000E7839FE99BBE3A2025642025250D0A005C
:1035C0004F6E654E65745F53656E64446174610D42
:1035D0000A000000434C4F534544000060000020A7
:1035E000FEB505460C464FF48061964801F0D9FDC2
:1035F0004FF48071944801F0D4FD4FF480719348EA
:1036000001F0CFFD92A19948FFF73BFE642198A0FD
:1036100000F0BAFB28B1A1A19448FFF732FE0120C7
:10362000FEBDA9A19148FFF72CFEAEA18F48FFF780
:1036300028FE6421B2A000F0A7FB28B1B4A18B48FA
:10364000FFF71FFE0220EBE7BBA18848FFF719FE3A
:10365000C0A2C8A17C4801F01FFB7B4801F076FDA9
:1036600006464FF48073794A3146774801F025F9D0
:10367000764B2A46C3A1744801F00EFBCDA17B48CE
:10368000FFF7FFFDD1A17948FFF7FBFD6E497748B1
:10369000FFF7F7FD64216C4800F076FB28B1D1A15B
:1036A0007248FFF7EEFD0320BAE7D8A16F48FFF795
:1036B000E8FD08E06420FEF7E6FEDAA1DC4801F050
:1036C00033FD00B103E0201EA4F10104F2D100BFDC
:1036D00098A16648FFF7D5FD002C01DC04209FE788
:1036E000D4A16248FFF7CDFDCEA1D14801F01CFD69
:1036F000D64908604FF48071544801F052FD534898
:1037000051490A460B46CDE900210290D0A1CF488D
:10371000006801F071FC4D4801F018FD06464FF4B9
:103720008063484A3146494801F0E1F8454A93A18F
:103730004E48FFF7A6FDCEA1424801F0F5FCC34973
:1037400008600846006860B1CDA14848FFF799FDC0
:10375000BE48006810F8042CD1A14448FFF791FD41
:1037600003E0D7A14148FFF78CFDDDA13F48FFF7FB
:1037700088FD6421E0A000F007FB28B1E3A13B48ED
:10378000FFF77FFD05204BE7EAA13848FFF779FDF9
:10379000EEA13648FFF775FD6421F3A000F0F4FABE
:1037A00028B1F6A13148FFF76CFD062038E7FEA1ED
:1037B0002E48FFF766FD002032E730B5A7B004467B
:1037C000182121A801F00FFD802101A801F00BFDB7
:1037D000FCA00088ADF80400182121A801F003FD29
:1037E000F948FAA1026821A801F056FA21A901A816
:1037F00001F0CBFC182121A801F0F5FCF648F7A157
:10380000026821A801F048FA21A901A801F0BDFC35
:10381000182121A801F0E7FCF448F5A1026821A8CD
:1038200001F03AFA21A901A801F0AFFC182121A862
:1038300001F0D9FCF1480278F1A121A801F02CFA9D
:1038400021A9E3E1E0040020E0080020E0090020D5
:10385000E58786E5A487E5889BE5BBBA48545450C4
:10386000E4B8BBE69CBA0D0A000000000038014035
:1038700041542B43485454504352454154453D22F2
:10388000687474703A2F2F6170692E6865636C6F6D
:103890007564732E636F6D2200000000E5889BE560
:1038A000BBBA48545450E4B8BBE69CBAE5A4B1E8AE
:1038B000B4A5EFBC8CE58786E5A487E9878DE59004
:1038C000AF5C720A00000000E5889BE5BBBA485473
:1038D0005450E4B8BBE69CBAE68890E58A9F0D0A8E
:1038E00000000000E58786E5A487E8BF9EE68EA578
:1038F000E69C8DE58AA1E599A85C720A00000000AB
:1039000041542B4348545450434F4E3D3000000027
:10391000E8BF9EE68EA5E69C8DE58AA1E599A8E51F
:10392000A4B1E8B4A5EFBC8CE58786E5A487E98758
:103930008DE590AF0D0A0000E8BF9EE68EA5E69CDF
:103940008DE58AA1E599A8E68890E58A9F5C720AD0
:1039500000000000507A7650707251596D63303516
:103960005259677344356B3D6E4373786765303DDC
:10397000000000006170692D6B65793A25730D0AAE
:103980000000000041542B434854545053454E44CA
:103990003D302C302C222F646576696365732F25AA
:1039A000732F64617461706F696E7473222C257358
:1039B00000000000E58786E5A487E58F91E9808116
:1039C000474554E8AFB7E6B1820D0A00E58F91E9AB
:1039D0008081E79A84E58685E5AEB9E4B8BAEFBCA4
:1039E0009A0D0A00E58F91E98081474554E8AFB709
:1039F000E6B182E5A4B1E8B4A5EFBC8CE58786E525
:103A0000A487E9878DE590AF5C720A00E58F91E9A4
:103A10008081474554E8AFB7E6B182E68890E58AF1
:103A20009F0D0A002B43485454504E4D49433A00D1
:103A300060000020E68EA5E694B6E695B0E68DAE71
:103A4000E68890E58A9F0D0A0000000058000020DB
:103A5000255B5E2C5D2C255B5E2C5D2C255B5E2C36
:103A60005D2C255B5E2C5D2C255B5E0D5D000000F2
:103A7000226964223A22746578745F616161220070
:103A8000E69FA5E8AFA2E5BC80E585B331E78AB63D
:103A9000E68081E6ADA3E7A1AE5C720A00000000FB
:103AA000E98787E99B86E588B0E79A84E695B0E5E3
:103AB00080BCE4B8BAEFBC9A2564200D0A0000006F
:103AC000E69FA5E8AFA2E5BC80E585B331E78AB6FD
:103AD000E68081E5A4B1E8B4A55C720A00000000AC
:103AE000E58786E5A487E696ADE5BC80E8BF9EE65F
:103AF0008EA50D0A0000000041542B434854545039
:103B0000444953434F4E3D3000000000E696ADE57A
:103B1000BC80E8BF9EE68EA5E5A4B1E8B4A5EFBCE5
:103B20008CE58786E5A487E9878DE590AF5C720A0E
:103B300000000000E696ADE5BC80E8BF9EE68EA5DD
:103B4000E68890E58A9F0D0A00000000E58786E57B
:103B5000A487E9878AE694BEE99480E6AF81485459
:103B600054500D0A0000000041542B434854545057
:103B700044455354524F593D30000000E9878AE6CE
:103B800094BEE99480E6AF8148545450E5A4B1E86E
:103B9000B4A5EFBC8CE58786E5A487E9878DE59021
:103BA000AF5C720A00000000E9878AE694BEE994DF
:103BB00080E6AF8148545450E68890E58A9F0D0A0C
:103BC000000000007B0000004000002022776174AC
:103BD0006572223A25642C00440000202274656D31
:103BE000706572223A25642C000000004800002015
:103BF0002268756D6964223A25642C004C0000200F
:103C000022736D6F6B65223A25642C0001A801F0C8
:103C1000BCFA182121A801F0E6FA2848027828A168
:103C200021A801F039F821A901A801F0AEFA27A1D5
:103C300001A801F0AAFA01A801F088FA0546AFF23E
:103C4000EC2323A225490090204601F025F801A984
:103C5000204601F09AFA27B030BD10B5C0B04FF43D
:103C60008071684601F0BFFA6846FFF7A6FD684616
:103C700001F06CFA84B22146684600F01EFF40B0A5
:103C800010BD10B5044616A1204601F04DFA20B132
:103C900015A11948FFF7F5FA0DE018A1204601F02B
:103CA00043FA20B117A11448FFF7EBFA03E019A17A
:103CB0001148FFF7E6FA00F0F6FE10BD4D000020B7
:103CC00022636F766572223A256400007D00000051
:103CD000363834383237353533000000E4750008A3
:103CE000434C4F534544000054435020434C4F53E2
:103CF00045440D0A000000000038014073756363FD
:103D000000000000546970733A0953656E64204FD7
:103D10004B0D0A00546970733A0953656E6420456F
:103D200072720D0A000000007047704770477047BC
:103D300010B5044619E00020FE4908604FF40071F8
:103D4000FD4801F02EFAFDA1FE48FFF79AFA22463F
:103D5000FDA1FE48FFF795FA6420FEF794FBFCA155
:103D6000F54801F0E1F900B103E0201EA4F10104DF
:103D7000E1D100BFF7A1F548FFF783FA002C01DC81
:103D8000012010BD0020FCE770B505460C46002060
:103D9000E84908604FF40071E74801F002FA2A464A
:103DA000EDA1E848FFF76DFA0EE02246E6A1E748EC
:103DB000FFF767FA4FF47A70FEF765FBE4A1DE487F
:103DC00001F0B2F900B103E0201EA4F10104ECD12E
:103DD00000BFE0A1DD48FFF754FA002C01DC012010
:103DE00070BD0020FCE710B504460020D1490860F2
:103DF0004FF40071D04801F0D4F9D9A1D148FFF7B0
:103E000040FA0EE02246D0A1D048FFF73AFA4FF42C
:103E10007A70FEF738FBD5A1C74801F085F900B1EB
:103E200003E0201EA4F10104ECD100BFC9A1C748E2
:103E3000FFF727FA002C01DC012010BD0020FCE771
:103E400010B504461AE00020BA4908604FF400712A
:103E5000B94801F0A6F9C7A1BA48FFF712FA2246FD
:103E6000B9A1BA48FFF70DFA4FF47A70FEF70BFBD1
:103E7000C3A1B14801F058F900B103E0201EA4F13C
:103E80000104E0D100BFB3A1B048FFF7FAF9002C5C
:103E900001DC012010BD0020FCE710B504461AE04B
:103EA0000020A44908604FF40071A34801F079F99B
:103EB000B6A1A448FFF7E5F92246A3A1A348FFF75E
:103EC000E0F94FF47A70FEF7DEFAB3A19A4801F0F8
:103ED0002BF900B103E0201EA4F10104E0D100BFE2
:103EE0009CA19A48FFF7CDF9002C01DC012010BD00
:103EF0000020FCE710B502460020012906D0022967
:103F000008D0032910D004293AD11FE01378303BA0
:103F1000184435E01378303B03EB830300EB430098
:103F20005378303B18442BE01378303B03EBC30449
:103F300004EB031300EB83005378303B03EB830364
:103F400000EB43009378303B184419E01378303B82
:103F500003EB4304C4EBC31300EBC3005378303BC3
:103F600003EBC30404EB031300EB83009378303BB3
:103F700003EB830300EB4300D378303B184400BFCE
:103F800000BF10BD30B58BB0044600206949086001
:103F90004FF40071684801F004F9142106A801F0FB
:103FA00022F9142101A801F01EF97EA16548FFF74E
:103FB00068F90DE0224664A16448FFF762F96420C5
:103FC000FEF761FA62A15C4801F0AEF800B103E0CF
:103FD000201EA4F10104EDD100BF5EA15B48FFF7F4
:103FE00050F9002C02DC63200BB030BD06A801ABF9
:103FF00006AA6FA10090504800F0FEFF01A801F052
:10400000A5F80546294601A8FFF774FFC0B2EBE703
:1040100010B5A0B004460020464908604FF4007176
:10402000454801F0BEF8282116A801F0DCF8282147
:104030000CA801F0D8F8282102A801F0D4F861A159
:104040004048FFF71EF90DE022463FA13F48FFF729
:1040500018F96420FEF717FA3DA1374801F064F81B
:1040600000B103E0201EA4F10104EDD100BF39A18D
:104070003648FFF706F9002C02DC012020B010BD05
:1040800002A80CA916AB16AACDE9001051A12A4826
:1040900000F0B2FF0CAA55A12C48FFF7F2F802AAD3
:1040A00055A12A48FFF7EDF80020E7E770B505466F
:1040B0000C4600201F4908604FF400711E4801F0B3
:1040C00070F82A4653A11F48FFF7DBF80DE022469F
:1040D0001DA11E48FFF7D5F86420FEF7D4F91CA1F6
:1040E000154801F021F800B103E0201EA4F10104FD
:1040F000EDD100BF17A11548FFF7C3F8002C01DC74
:10410000012070BD0020FCE710B504469BE00020B4
:10411000084908604FF40071074801F042F840A1D7
:104120000848FFF7AEF8224607A10848FFF7A9F8AC
:104130007EE000003C0000206000002041540D0A99
:1041400000000000004400402564200000380140C9
:104150004F4B00000D0A000025730D0A00000000FF
:1041600041542B4350494E3F0D0A000052454144F3
:104170005900000041542B43475245473F0D0A0068
:104180002B43475245473A20302C310041542B43B2
:10419000474143543F0D0A002B43474143543A20C3
:1041A000312C310041542B4353510D0A00000000C3
:1041B000255B5E205D20255B5E2C5D2C255B5E0D06
:1041C0005D00000041542B4347434F4E545244502E
:1041D0000D0A0000255B5E2C5D2C255B5E2C5D2CA2
:1041E000255B5E2C5D2C255B5E0D5D0041504EEF26
:1041F000BC9A25730D0A00006970E5928CE5AD90BC
:10420000E7BD91E68EA9E7A081EFBC9A25730D0A60
:104210000000000041542B4950523D25640D0A0016
:1042200041542B4350534D533D300D0A00000000C4
:104230004FF47A70FEF727F9AFF2EC01944800F0E2
:1042400073FF00B104E0201EA4F101047FF45FAF0E
:1042500000BFAFF200118F48FFF713F8002C01DC0C
:10426000012010BD0020FCE710B504461CE0002032
:10427000894908604FF40071854800F092FF87A1DA
:104280008A48FEF7FEFF2246AFF244118148FEF74E
:10429000F8FF4FF47A70FEF7F6F8AFF24C117C4855
:1042A00000F042FF00B103E0201EA4F10104DED1C2
:1042B00000BFAFF260117748FEF7E3FF002C01DC8E
:1042C000012010BD0020FCE710B504461BE00020D3
:1042D000714908604FF400716D4800F062FF74A1ED
:1042E0007248FEF7CEFF2246AFF2A4116948FEF7EE
:1042F000C8FF4FF47A70FEF7C6F877A1644800F063
:1043000013FF00B103E0201EA4F10104DFD100BFC0
:1043100070A16048FEF7B5FF002C01DC012010BD44
:104320000020FCE770B5FFF702FD6DA15948FEF7CC
:10433000A8FF3220FFF7FCFC28B176A15548FEF714
:10434000A0FF012603E07DA15248FEF79AFF81A15C
:104350005048FEF796FF0A20FFF745FD28B186A1D9
:104360004C48FEF78EFF022603E08EA14948FEF777
:1043700088FF052519E091A14648FEF782FF32200B
:10438000FFF700FE0446002C0BDD1F2C09DC94A176
:104390004048FEF776FF22469CA13E48FEF771FF9B
:1043A00008E04FF47A70FEF76EF8281EA5F10101BF
:1043B000CDB2E0D100BF002D01DC032603E098A1BF
:1043C0003448FEF75EFF9DA13248FEF75AFF0A20EF
:1043D000FFF736FD28B1A2A12E48FEF752FF0426B2
:1043E00003E0AAA12B48FEF74CFFAEA12948FEF737
:1043F00048FF0A20FFF751FD28B1B2A12548FEF77A
:1044000040FF052603E0B9A12248FEF73AFFBCA110
:104410002048FEF736FF3220FFF7FAFD20B1C4A195
:104420001C48FEF72EFF0626CFA11A48FEF729FFEB
:104430001420FFF769FE28B1D3A11648FEF721FF2B
:10444000072603E0DAA11348FEF71BFFDEA111489F
:10445000FEF717FF1420FFF707FF28B1E2A10D4870
:10446000FEF70FFF082603E0EAA10A48FEF709FF5E
:10447000EFA10848FEF705FF1420FFF725FF28B13C
:10448000F3A10448FEF7FDFE0926F9E1F4E100007E
:1044900060000020003801403C00002041542B43C4
:1044A00045445258533D300D0A000000004400407E
:1044B00041542B43495053544152543D225443508C
:1044C000222C223138332E3233302E34302E3333F7
:1044D000222C38300D0A0000434F4E4E4543540005
:1044E000E58F91E98081E6B58BE8AF95E68C87E4AE
:1044F000BBA4EFBC8CE7AD89E5BE85E4B8B2E58F1F
:10450000A3E6ADA3E5B8B82E2E2E202E2E2E0D0A32
:1045100000000000E6B58BE8AF95E68C87E4BBA40D
:10452000E8B685E697B6EFBC8CE58786E5A487E913
:10453000878DE590AF5C720A00000000E6B58BE85D
:10454000AF95E68C87E4BBA4E68890E58A9F0D0AC8
:1045500000000000E58786E5A487E6A380E69FA526
:1045600053494DE58DA1E78AB6E680812E2E2E2097
:104570002E2E2E0D0A000000E6A380E69FA55349CB
:104580004DE58DA1E78AB6E68081E8B685E697B667
:10459000EFBC8CE58786E5A487E9878DE590AF0DB4
:1045A0000A00000053494DE58DA1E78AB6E68081F7
:1045B000E6ADA3E5B8B85C720A000000E58786E5C1
:1045C000A487E6A380E69FA5E4BFA1E58FB7E8B482
:1045D000A8E9878F2E2E2E202E2E2E0D0A000000E9
:1045E000E4BFA1E58FB7E5BCBAE5BAA6E88C83E5E0
:1045F0009BB4307E33312C3939E8A1A8E7A4BAE660
:1046000097A0E4BFA1E58FB75C720A00E4BFA1E503
:104610008FB7E5BCBAE5BAA6EFBC9A25640D0A00CF
:10462000E6A380E69FA5E4BFA1E58FB7E8B4A8E9BB
:10463000878FE68890E58A9F5C720A00E58786E5A9
:10464000A487E69FA5E8AFA2E7BD91E7BB9CE999E7
:1046500084E79D802E2E2E202E2E2E0D0A00000087
:10466000E69FA5E8AFA2E7BD91E7BB9CE99984E787
:104670009D80E8B685E697B6EFBC8CE58786E5A415
:1046800087E9878DE590AF5C720A0000E7BD91E78E
:10469000BB9CE99984E79D80E68890E58A9F0D0A96
:1046A00000000000E58786E5A487E69FA5E8AFA2A5
:1046B00050444E20E6BF80E6B4BB2E2E2E202E2E78
:1046C0002E0D0A00E69FA5E8AFA250444E20E6BF9B
:1046D00080E6B4BBE8B685E697B6EFBC8CE5878686
:1046E000E5A487E9878DE590AF0D0A0050444E2080
:1046F000E6BF80E6B4BBE68890E58A9F5C720A005C
:10470000E58786E5A487E69FA5E8AFA241504EE580
:10471000928CE58886E9858DE79A844950E59CB0BE
:10472000E59D802E2E2E202E2E2E0D0A000000003C
:10473000E69FA5E8AFA241504EE5928CE58886E958
:10474000858DE79A844950E59CB0E59D80E8B68563
:10475000E697B6EFBC8CE58786E5A487E9878DE50B
:1047600090AF5C720A000000E58786E5A487E585C6
:10477000B3E997AD50434DE6A8A1E5BC8F2E2E2E90
:10478000202E2E2E0D0A0000E585B3E997AD50438B
:104790004DE6A8A1E5BC8FE8B685E697B6EFBC8CE0
:1047A000E58786E5A487E9878DE590AF5C720A000E
:1047B000E585B3E997AD50434DE6A8A1E5BC8FE68A
:1047C0008890E58A9F0D0A00E58786E5A487E58540
:1047D000B3E997AD65445258E6A8A1E5BC8F2E2EEB
:1047E0002E202E2E2E0D0A00E585B3E997AD6544E7
:1047F0005258E6A8A1E5BC8FE8B685E697B6EFBCAF
:104800008CE58786E5A487E9878DE590AF5C720A21
:1048100000000000E585B3E997AD65445258E6A86D
:10482000A1E5BC8FE68890E58A9F0D0A0000000094
:10483000E58786E5A487E8BF9EE68EA5E69C8DE524
:104840008AA1E599A82E2E2E202E2E2E0D0A0000CC
:10485000E8BF9EE68EA5E69C8DE58AA1E599A8E8CD
:10486000B685E697B6EFBC8CE58786E5A487E98731
:104870008DE590AF0D0A0000CFA1D648FEF701FDEF
:10488000AFF2B031D348FEF7FCFC0020D2490870EB
:10489000D24908604FF40071D14800F082FC002634
:1048A00026B9D0A1CB48FEF7ECFC04E03246D3A1F8
:1048B000C848FEF7E6FC002070BD2DE9F843054628
:1048C0000E46174698464146384600F06AFC0024DA
:1048D00009E02A5DD2A1684600F0DEF96946384653
:1048E00000F053FC641CB442F3DBBDE8F8832DE90F
:1048F000F04105460F46164698464146304600F0C0
:1049000050FC0024C7E015F81400302817DB15F818
:104910001400392813DC6000401C285C30280EDBB2
:104920006000401C285C392809DC6000401C295CC0
:10493000303915F8140001EB00103055AAE015F8D5
:104940001400302817DB15F81400392813DC600038
:10495000401C285C41280EDB6000401C285C462877
:1049600009DC6000401C295C373915F8140001EBA4
:10497000001030558EE015F81400302817DB15F8BC
:104980001400392813DC6000401C285C61280EDB11
:104990006000401C285C662809DC6000401C295C23
:1049A000573915F8140001EB0010305572E015F876
:1049B0001400412818DB15F81400462814DC6000A8
:1049C000401C285C30280FDB6000401C285C392824
:1049D0000ADC6000401C295C303915F81400C01F47
:1049E00001EB0010305555E015F81400612818DB74
:1049F00015F81400662814DC6000401C285C302880
:104A00000FDB6000401C285C39280ADC6000401C79
:104A1000295C303915F81400C01F01EB0010305527
:104A200038E015F81400412818DB15F81400462862
:104A300014DC6000401C285C41280FDB6000401C37
:104A4000285C46280ADC6000401C295C373915F8D0
:104A50001400C01F01EB001030551BE015F81400C6
:104A6000612817DB15F81400662813DC6000401C71
:104A7000285C61280EDB6000401C285C662809DC8D
:104A80006000401C295C573915F81400C01F01EB69
:104A900000103055641C07EBD771B4EB610FFFF6C3
:104AA00032AFBDE8F08110B500204C4908604FF4EA
:104AB00000714B4800F075FB10BD30B589B004465D
:104AC0000D46FFF7F0FF2A4657A101A800F0E4F8D1
:104AD00001A95948FEF7D5FB00BF58A1404800F096
:104AE00023FB0028F9D02A4621465348FEF7B0FBA5
:104AF00053A13848FEF7C5FB09B030BD3748006800
:104B000008B9012070473548006853490988884230
:104B100003D1002031490860F4E7304800884E494D
:104B200008800120EEE72DE9F04104460D46C82635
:104B3000204600F00BFB87B23A4621463E48FEF77E
:104B400087FB0FE0FFF7DAFF48B92946244800F059
:104B5000EBFA20B1FFF7A7FF0020BDE8F0810A20A3
:104B6000FDF770FC301EA6F10101CEB2EAD10120A2
:104B7000F3E770B50546002400BFFFF7BFFF80B91B
:104B800036A1174800F0D0FA044654B13A21204625
:104B900000F0C0FA044614B1641C204670BD002029
:104BA000FCE70520FDF74EFC281EA5F101018DB2A2
:104BB000E3D100BFF2E70000E8BF9EE68EA5E69CC9
:104BC0008DE58AA1E599A8E68890E58A9F5C720A3E
:104BD0000000000000380140550000203C0000208B
:104BE00060000020E6A8A1E59D97E9858DE7BDAEB0
:104BF000E68890E58A9F0D0A00000000E9858DE7B0
:104C0000BDAEE5A4B1E8B4A5202072657475726EDE
:104C10005F76616C7565203D2025640D0A000000FB
:104C2000253032580000000041542B434950534571
:104C30004E443D25640D0A00004400403E00000043
:104C4000E695B0E68DAEE58F91E98081E68890E546
:104C50008A9F200D0A0000005C0000204950442C6F
:104C6000000000007CB51D4616460C00009001D0E7
:104C70002044401E074B7B442A466946019030463B
:104C800000F05FFB05461CB10020694600F06CFB9C
:104C900028467CBDF90600000FB41CB5084B06AAD7
:104CA0007B4469460090059800F04BFB04460020C9
:104CB000694600F059FB20461CBC5DF814FB00005F
:104CC000C506000070B5044685690068C10601D5B7
:104CD000302600E02026C00707D070BDD4E90121AE
:104CE00030469047206A401C20626D1EF6D570BD8C
:104CF00070B5044685690078C00707D170BDD4E956
:104D0000012120209047206A401C20626D1EF6D5AC
:104D100070BD70B50C460546012A05D0287880067E
:104D200000D5EA69002302E0012305E05B1C934201
:104D300002D2E05C0028F9D1A869E618C01AA8617F
:104D4000286A184428622846FFF7BCFF04E0D5E92A
:104D5000012114F8010B9047B442F8D32846FFF71D
:104D6000C7FF70BD2DE9F041064600241068752983
:104D7000314616A510D000F060FA002802DA404251
:104D800013A507E031688A0701D512A502E049079B
:104D900004D511A5012401E000F058FA00210A22EF
:104DA00006F1240709E0B0FBF2FCB0FBF2F302FBD2
:104DB0001C00303078541846491C0028F3D1234693
:104DC0002A463046BDE8F04100F049BA0000000034
:104DD0002D0000002B00000020000000F0B40D4664
:104DE0000188090502D5214C7C4402E01F4C7C441B
:104DF0000E34002100F1240608E002F00F0712092A
:104E0000E75D42EA03721B097754491C52EA030723
:104E1000F3D102780023120704D5702D06D009B112
:104E2000022311342246F0BC00F019BA01231034D9
:104E3000F8E770B504460D462146106800F006FA02
:104E4000024629462046BDE870400023C6E7D21D31
:104E500022F00703D3E90023C0E70368126843F098
:104E6000200303600823C3610023B7E72027000065
:104E70002DE9F05F894604464FF0000ADFF874B16F
:104E8000FB44C0F820A02046E1688847002874D081
:104E9000252806D0D4E901219047206A401C2062D1
:104EA000F1E700265F462046E1688847202805464E
:104EB00007DB312D05D2781910F8200C08B1064314
:104EC000F1E7B00701D526F00406C4F81CA00027BE
:104ED000C4F818A02A2D09D0284601F0D6FC38B312
:104EE00004EB8708303DC8F8185019E059F8041B46
:104EF000204604EB87029161E1688847012F05464F
:104F000018D1E069002820DA26F020061DE0D8F844
:104F1000180000EB800005EB40003038C8F818009E
:104F20002046E1688847054601F0AFFC0028EED135
:104F3000012F0AD02E2D08D12046E16888477F1C1A
:104F40000546022F46F02006C4DBA069002803DADC
:104F5000404246F00106A061F00701D026F010069D
:104F60006C2D0BD0682D09D04C2D39D06A2D35D041
:104F7000742D35D07A2D33D016E038E0E1682F4615
:104F800020468847B842054609D16C2F26D04FF4F9
:104F90008060E168064320468847054604E06C2FA0
:104FA0001AD04FF4807006430DB3A5F141001928C3
:104FB00002D8203546F400664A4629462046266037
:104FC0004E46FBF7CDF880B101280BD0F61D26F038
:104FD000070000F1080956E74020E4E78020D8E701
:104FE0000020D6E706F104094DE7284652E7206A7B
:104FF000BDE8F09FB02600000FB400B58DB010A939
:10500000099000910B904FF0FF300A9000200C9017
:10501000064878440690064878446A4607900F99F7
:1050200009A800F09FFA0DB05DF814FB6F050000B1
:10503000870500002DE9FF5F4FF0000899461446F0
:1050400046469169D2E901A7DDF838B00198884752
:10505000054659EA0B0005D009E0A1690198761CC4
:1050600088470546216A284688470028F5D1681CEC
:1050700003D05FEACA7005D015E04FF0FF3004B0EE
:10508000BDE8F09F2068011D2160D0F800800AE093
:105090005FEACA7001D108F8015BA169761C01982A
:1050A0007F1E88470546002F1ADD681C18D0B9F10D
:1050B000000F0DD0E81705EBD060421120F01F0063
:1050C00059F822102A1A012090400142E0D107E04D
:1050D000BBF1000FDCD12846216A88470028D7D0D1
:1050E000E16901988847BBF1000F07D1002E05DD6B
:1050F0005FEACA7002D1002188F80010A068B842A7
:1051000003DDBBF1000F03D017B16FF00100B6E76C
:105110003046B4E7401ECAB210F8011F8A4202D0DE
:105120000029F9D10020704730B505460B462A46C4
:1051300013F8014B12F8010B08B1A042F8D01CB1D2
:10514000002802D06D1CF1E7284630BD10B5431C85
:1051500002E010F8011B71B18107FAD14FF0013262
:1051600002C88C1A8C4314EAC211F9D0C01A0A067C
:1051700003D0C01E10BDC01A10BD0A0401D0801E8D
:1051800010BD0902FCD0401E10BD421E12F8013FA6
:10519000002BFBD111F8013B002B02F8013BF9D1A8
:1051A00070474FF000020429C0F0128010F0030C89
:1051B00000F01B80CCF1040CBCF1020F18BF00F80A
:1051C000012BA8BF20F8022BA1EB0C0100F00DB8B9
:1051D0005FEAC17C24BF00F8012B00F8012B48BF17
:1051E00000F8012B70474FF0000200B513469446BB
:1051F0009646203922BFA0E80C50A0E80C50B1F12F
:105200002001BFF4F7AF090728BFA0E80C5048BF42
:105210000CC05DF804EB890028BF40F8042B08BFE0
:10522000704748BF20F8022B11F0804F18BF00F8DC
:10523000012B704770477047704709684A0501D5D0
:1052400040B27047C905FCD500B2704709684A05ED
:1052500001D5C0B27047C905FCD580B270472DE9B1
:10526000F0470D4699469246044600F1240801682D
:10527000880604D5E06921F01001216000E00120DA
:10528000A84201DD471B00E00027A1697A1902EB63
:105290000900081AA0612078C00602D42046FFF752
:1052A00011FD002608E0D4E901211AF80600904714
:1052B000206A401C761C20624E45F4DB2078C00634
:1052C0000AD52046FFF7FEFC06E0D4E90121302094
:1052D0009047206A401C2062381EA7F10107F4DCC9
:1052E00007E0D4E9012118F805009047206A401C26
:1052F0002062281EA5F10105F3DC2046FFF7F8FC2B
:105300002078000602D50220BDE8F0870120FBE7E7
:1053100011680268006A530501D508700AE0D305D8
:1053200001D5088006E0130603D5C217C1E90002C3
:1053300000E008600120704701694A1C026108789A
:10534000704700B58FB0CDE90131002105910549C5
:105350007944CDE9031011466846FFF789FD0FB087
:1053600000BD0000E5FFFFFF0A6802F8010B0A60BC
:105370007047D1E900239A4202D2531C0B6010708F
:10538000704710B5436913B1AFF3008001E0FFF738
:10539000C0FC012010BD127800F124010A70002227
:1053A0004A700122EDE711684FF0FF32E9E7000093
:1053B0002DE9FF5F15468A460446DFF8AC80F844C5
:1053C0000027D8E900103E46CDE9001010E03AF879
:1053D00016106A4602A800F023FD411C07D0217870
:1053E000890603D5E269391891420DD80744761C25
:1053F0002078800602D5E069B84205DDAE42E6DBE2
:105400003AF816000028E2D1A069C01BA06120462E
:10541000FFF758FCD8E90010CDE90010002017E094
:105420003AF818106A4602A800F0FAFCB0F1FF3F03
:1054300081460BD000250DF1080B05E0D4E90121D0
:105440001BF8050090476D1C4D45F7D308F101008E
:10545000B0428046E4DB206A384420622046FFF7F1
:1054600047FCBDE8FF9F0000862100002DE9F041C8
:105470008046D21D22F007020025D2E90002F5295C
:1054800015A614D0011E72F1000106DA0023D0EB3C
:10549000030063EB020211A608E0D8F800108B07A6
:1054A00001D50FA602E0490701D50EA60125114638
:1054B000002408F1240704E000F084F830323A5563
:1054C000641C50EA0102F7D12B4632462146404681
:1054D000BDE8F041FFF7C3BE000000002D00000052
:1054E0002B0000002000000030B4002100F1240453
:1054F00008E002F00705D208303542EA4372DB08C3
:105500006554491C52EA0305F3D10468002310A234
:10551000250707D5A40600D421B1C46901230DA233
:10552000641EC46130BCFFF79ABE10B50446214624
:105530001068FFF78BFE02462046BDE810400023AE
:10554000D2E7D21D22F00701D1E90023CCE7000009
:105550000000000030000000026811441378016070
:1055600018467047D160054979445161044979442E
:10557000116200211161114600F098BAEDFFFFFFA2
:10558000DD000000426842B1016811F8013B23B11F
:10559000521EC0E90012184670470121C160881EE2
:1055A000704742685AB1C368016843B983688B4247
:1055B00005D0491E521CC0E90012002070474FF070
:1055C000FF30704730B5B0F10A024FEA900E71F12A
:1055D00000034EEA817EB0EB0E0061EB91014FEAD1
:1055E000101E4EEA017E10EB0E0041EB11114FEA46
:1055F000102E4EEA016E10EB0E0041EB11214FEA26
:10560000104E4EEA014E10EB0E0041EB11414018D6
:1056100041F100014FEAD00040EA41704FEAD10168
:1056200010EB80054FEA810444EA907444EB0104D6
:105630006D1944EB0404521BA3414FF0000348BF13
:105640000A3200D530BD401C41F1000130BD10B51B
:10565000044600F02BFC0068005D00F0010010BD66
:1056600070472DE9FF4F0C461E464FF0FF378BB0B9
:10567000D2E90001DDF860800A908A46C1F30A553C
:1056800005B93D46002108464FF00000BAF1000F71
:1056900000F4400005DA00EB80004FF4400101EA1D
:1056A00050004FEA9059B9F1010F00DDB9460A9850
:1056B00050EA4A000ED044F61050A5F2FF3545439B
:1056C0002F14B8F1000F1ED07542291E1EDDC9F13E
:1056D00000021CE0B8F1010F4FF0000001D03021B2
:1056E00003E0F24305E02154401CB042FBDB3046AE
:1056F0000022002121540B99C1F80880C1E9002043
:105700000FB0BDE8F08FBD1B6D1CDEE74A4600DA26
:10571000694206A800F016FC06AB93E8070003AB4D
:1057200083E8070050460A9900F0D3FC8DE8070093
:10573000A0F500501F3800900398002D0ADD42F2BA
:105740001F014A460844002303A90390684600F05D
:105750003CFF09E0A0F500504A461F38002303A98A
:105760000390684600F046FF8DE807000004000C37
:1057700003D04FF0FF30410800E01046B8F1000FB1
:1057800003D00022009215461EE0751E05D4FFF7D7
:1057900019FF303262556D1EF9D5B3460122084318
:1057A00002D000227F1C04E02078302801D10022A2
:1057B0007F1E002A099784D01DE0112D07DAFFF71C
:1057C00001FF303262556D1C50EA0102F5D10843E9
:1057D00002D00098C8B10EE00021681E05E0235CED
:1057E000625C63542254401E491C8142F7DBAB4685
:1057F000A81B401E0990002004F80B000B98099A82
:10580000C0F80880C0E9002B7AE711264FF00008A5
:1058100057E72DE9F04F88460446D21D22F00701D4
:1058200091B0D1E90001CDE90A0101F01AF8024670
:105830000B98C00F01D02D2007E02068810701D50B
:105840002B2002E0202101EAC000032A099001D0A8
:10585000072A05DB03464146204600F033FB0BE1F7
:105860002078800601D5E06900E00620B8F1650FD8
:10587000814606D0B8F1660F18D0B8F1670F70D125
:1058800031E00020B9F1110F009001DB112301E09C
:1058900009F101030AAA01A90CA8FFF7E2FEDDE95C
:1058A0000C70002609F10105834647E001204B46B4
:1058B00000904FF000470AAA01A90CA8FFF7D1FEFB
:1058C000DDE90DB00C995D46002610B909F1010023
:1058D0000D18B9EB050003D4C0F1FF3609F101053D
:1058E000A5EB09002BE0B9F1010F01DA4FF0010936
:1058F0000020B9F1110F0090484601DD112300E0AE
:1059000003460AAA01A90CA8FFF7ABFEDDE90C705B
:105910004D4600268346207800070AD4AB4500DABE
:105920005D4601A8012D04DD411911F8011C302943
:1059300007D04F4502DA17F1040F04DA012082463E
:105940000FE06D1EEEE7002F02DCED1B3E4403E08E
:10595000781CA84200DD7D1CB81B00F1010A4FF045
:1059600000472078000703D4AA4501DB4FF0FF3A37
:105970000021B7F1004F0DF143088DF8431024D0FA
:1059800002202B23002F01DA7F422D230A21021E41
:10599000A0F1010000DC5FB197FBF1FC97FBF1F295
:1059A00001FB1C7C17460CF1300C08F801CDEEE72A
:1059B000A8F1010003702188090501D5452100E007
:1059C0006521A0F1010800F8011C09980FA9A1EBBD
:1059D0000807FF1D00B10120411901EBEA70A16920
:1059E0003844081A401EA0612078C00602D4204620
:1059F000FFF768F9099828B1D4E901219047206A96
:105A0000401C20622078C00622D52046FFF75AF9B4
:105A10001EE0002E04DBB34502DD01A8805D00E03E
:105A20003020D4E901219047206A401C2062761C76
:105A3000AAF101005FEA000A0AD100F03FFAC0684B
:105A40000168405CD4E901219047206A401C206233
:105A5000281EA5F10105DCDC07E0D4E9012118F8D6
:105A6000010B9047206A401C2062381EA7F10107F5
:105A7000F3DC2046FFF73CF9032011B041E610B5F6
:105A8000436913B1AFF3008001E0FFF791FC0120FF
:105A900010BD128800F1240182840022C2840122F8
:105AA000EDE711684FF0FF32E9E700002DE9F34F11
:105AB0004FF0000A0C4656468DB001200C9001F1C3
:105AC0000C000B9062690B9801219047051E2DD0A8
:105AD000252D2CD0216A8847C0B162690B9801211D
